{
  "_format": "hh-sol-artifact-1",
  "contractName": "VotingSystem",
  "sourceName": "contracts/VotingSystem.sol",
  "abi": [
    {
      "inputs": [
        {
          "internalType": "string[]",
          "name": "_candidateNames",
          "type": "string[]"
        }
      ],
      "stateMutability": "nonpayable",
      "type": "constructor"
    },
    {
      "anonymous": false,
      "inputs": [
        {
          "indexed": false,
          "internalType": "address",
          "name": "voter",
          "type": "address"
        },
        {
          "indexed": false,
          "internalType": "string",
          "name": "candidate",
          "type": "string"
        }
      ],
      "name": "VoteCasted",
      "type": "event"
    },
    {
      "inputs": [],
      "name": "admin",
      "outputs": [
        {
          "internalType": "address",
          "name": "",
          "type": "address"
        }
      ],
      "stateMutability": "view",
      "type": "function"
    },
    {
      "inputs": [
        {
          "internalType": "uint256",
          "name": "",
          "type": "uint256"
        }
      ],
      "name": "candidates",
      "outputs": [
        {
          "internalType": "string",
          "name": "name",
          "type": "string"
        },
        {
          "internalType": "uint256",
          "name": "voteCount",
          "type": "uint256"
        }
      ],
      "stateMutability": "view",
      "type": "function"
    },
    {
      "inputs": [],
      "name": "getWinner",
      "outputs": [
        {
          "internalType": "string",
          "name": "",
          "type": "string"
        }
      ],
      "stateMutability": "view",
      "type": "function"
    },
    {
      "inputs": [
        {
          "internalType": "address",
          "name": "",
          "type": "address"
        }
      ],
      "name": "hasVoted",
      "outputs": [
        {
          "internalType": "bool",
          "name": "",
          "type": "bool"
        }
      ],
      "stateMutability": "view",
      "type": "function"
    },
    {
      "inputs": [
        {
          "internalType": "uint256",
          "name": "_candidateIndex",
          "type": "uint256"
        }
      ],
      "name": "vote",
      "outputs": [],
      "stateMutability": "nonpayable",
      "type": "function"
    }
  ],
  "bytecode": "0x608060405234801561001057600080fd5b506040516119df3803806119df833981810160405281019061003291906104cc565b336000806101000a81548173ffffffffffffffffffffffffffffffffffffffff021916908373ffffffffffffffffffffffffffffffffffffffff16021790555060005b8151811015610167576002604051806040016040528084848151811061009e5761009d610515565b5b602002602001015181526020016000815250908060018154018082558091505060019003906000526020600020906002020160009091909190915060008201518160000190816100ee9190610765565b5060208201518160010155505061015a6040518060400160405280601081526020017f43616e6469646174652061646465643a0000000000000000000000000000000081525083838151811061014757610146610515565b5b602002602001015161016e60201b60201c565b8080600101915050610075565b50506108e7565b61020c8282604051602401610184929190610881565b6040516020818303038152906040527f4b5c4277000000000000000000000000000000000000000000000000000000007bffffffffffffffffffffffffffffffffffffffffffffffffffffffff19166020820180517bffffffffffffffffffffffffffffffffffffffffffffffffffffffff838183161783525050505061021060201b60201c565b5050565b6102318161022c61023460201b6108891761025560201b60201c565b60201c565b50565b60006a636f6e736f6c652e6c6f679050600080835160208501845afa505050565b61026760201b610b3c17819050919050565b61026f6108b8565b565b6000604051905090565b600080fd5b600080fd5b600080fd5b6000601f19601f8301169050919050565b7f4e487b7100000000000000000000000000000000000000000000000000000000600052604160045260246000fd5b6102d38261028a565b810181811067ffffffffffffffff821117156102f2576102f161029b565b5b80604052505050565b6000610305610271565b905061031182826102ca565b919050565b600067ffffffffffffffff8211156103315761033061029b565b5b602082029050602081019050919050565b600080fd5b600080fd5b600067ffffffffffffffff8211156103675761036661029b565b5b6103708261028a565b9050602081019050919050565b60005b8381101561039b578082015181840152602081019050610380565b60008484015250505050565b60006103ba6103b58461034c565b6102fb565b9050828152602081018484840111156103d6576103d5610347565b5b6103e184828561037d565b509392505050565b600082601f8301126103fe576103fd610285565b5b815161040e8482602086016103a7565b91505092915050565b600061042a61042584610316565b6102fb565b9050808382526020820190506020840283018581111561044d5761044c610342565b5b835b8181101561049457805167ffffffffffffffff81111561047257610471610285565b5b80860161047f89826103e9565b8552602085019450505060208101905061044f565b5050509392505050565b600082601f8301126104b3576104b2610285565b5b81516104c3848260208601610417565b91505092915050565b6000602082840312156104e2576104e161027b565b5b600082015167ffffffffffffffff811115610500576104ff610280565b5b61050c8482850161049e565b91505092915050565b7f4e487b7100000000000000000000000000000000000000000000000000000000600052603260045260246000fd5b600081519050919050565b7f4e487b7100000000000000000000000000000000000000000000000000000000600052602260045260246000fd5b6000600282049050600182168061059657607f821691505b6020821081036105a9576105a861054f565b5b50919050565b60008190508160005260206000209050919050565b60006020601f8301049050919050565b600082821b905092915050565b6000600883026106117fffffffffffffffffffffffffffffffffffffffffffffffffffffffffffffffff826105d4565b61061b86836105d4565b95508019841693508086168417925050509392505050565b6000819050919050565b6000819050919050565b600061066261065d61065884610633565b61063d565b610633565b9050919050565b6000819050919050565b61067c83610647565b61069061068882610669565b8484546105e1565b825550505050565b600090565b6106a5610698565b6106b0818484610673565b505050565b5b818110156106d4576106c960008261069d565b6001810190506106b6565b5050565b601f821115610719576106ea816105af565b6106f3846105c4565b81016020851015610702578190505b61071661070e856105c4565b8301826106b5565b50505b505050565b600082821c905092915050565b600061073c6000198460080261071e565b1980831691505092915050565b6000610755838361072b565b9150826002028217905092915050565b61076e82610544565b67ffffffffffffffff8111156107875761078661029b565b5b610791825461057e565b61079c8282856106d8565b600060209050601f8311600181146107cf57600084156107bd578287015190505b6107c78582610749565b86555061082f565b601f1984166107dd866105af565b60005b82811015610805578489015182556001820191506020850194506020810190506107e0565b86831015610822578489015161081e601f89168261072b565b8355505b6001600288020188555050505b505050505050565b600082825260208201905092915050565b600061085382610544565b61085d8185610837565b935061086d81856020860161037d565b6108768161028a565b840191505092915050565b6000604082019050818103600083015261089b8185610848565b905081810360208301526108af8184610848565b90509392505050565b7f4e487b7100000000000000000000000000000000000000000000000000000000600052605160045260246000fd5b6110e9806108f66000396000f3fe608060405234801561001057600080fd5b50600436106100575760003560e01c80630121b93f1461005c57806309eef43e146100785780633477ee2e146100a85780638e7ea5b2146100d9578063f851a440146100f7575b600080fd5b61007660048036038101906100719190610b81565b610115565b005b610092600480360381019061008d9190610c0c565b61046c565b60405161009f9190610c54565b60405180910390f35b6100c260048036038101906100bd9190610b81565b61048c565b6040516100d0929190610d0e565b60405180910390f35b6100e1610548565b6040516100ee9190610d3e565b60405180910390f35b6100ff610865565b60405161010c9190610d6f565b60405180910390f35b600160003373ffffffffffffffffffffffffffffffffffffffff1673ffffffffffffffffffffffffffffffffffffffff16815260200190815260200160002060009054906101000a900460ff16156101a2576040517f08c379a000000000000000000000000000000000000000000000000000000000815260040161019990610dd6565b60405180910390fd5b60028054905081106101e9576040517f08c379a00000000000000000000000000000000000000000000000000000000081526004016101e090610e42565b60405180910390fd5b60018060003373ffffffffffffffffffffffffffffffffffffffff1673ffffffffffffffffffffffffffffffffffffffff16815260200190815260200160002060006101000a81548160ff02191690831515021790555060016002828154811061025657610255610e62565b5b906000526020600020906002020160010160008282546102769190610ec0565b925050819055506102bc6040518060400160405280600f81526020017f566f7465206361737465642062793a0000000000000000000000000000000000815250336108aa565b6103a86040518060400160405280601481526020017f43616e64696461746520766f74656420666f723a0000000000000000000000008152506002838154811061030957610308610e62565b5b9060005260206000209060020201600001805461032590610f23565b80601f016020809104026020016040519081016040528092919081815260200182805461035190610f23565b801561039e5780601f106103735761010080835404028352916020019161039e565b820191906000526020600020905b81548152906001019060200180831161038157829003601f168201915b5050505050610946565b61040c6040518060400160405280601a81526020017f546f74616c20766f74657320666f722063616e6469646174653a000000000000815250600283815481106103f5576103f4610e62565b5b9060005260206000209060020201600101546109e2565b7fb7821d50dfbda5ea310faebbeac5217bc1bb0cabe463e76b80e48d11e57df098336002838154811061044257610441610e62565b5b9060005260206000209060020201600001604051610461929190610fed565b60405180910390a150565b60016020528060005260406000206000915054906101000a900460ff1681565b6002818154811061049c57600080fd5b90600052602060002090600202016000915090508060000180546104bf90610f23565b80601f01602080910402602001604051908101604052809291908181526020018280546104eb90610f23565b80156105385780601f1061050d57610100808354040283529160200191610538565b820191906000526020600020905b81548152906001019060200180831161051b57829003601f168201915b5050505050908060010154905082565b60606000806000805b6002805490508110156105fe57836002828154811061057357610572610e62565b5b90600052602060002090600202016001015411156105bf576002818154811061059f5761059e610e62565b5b9060005260206000209060020201600101549350809250600091506105f1565b83600282815481106105d4576105d3610e62565b5b906000526020600020906002020160010154036105f057600191505b5b8080600101915050610551565b508015610683576106436040518060400160405280600f81526020017f54686572652069732061207469652e0000000000000000000000000000000000815250610a7e565b6040518060400160405280600f81526020017f54686572652069732061207469652e00000000000000000000000000000000008152509350505050610862565b61076f6040518060400160405280601281526020017f57696e6e696e672063616e6469646174653a0000000000000000000000000000815250600284815481106106d0576106cf610e62565b5b906000526020600020906002020160000180546106ec90610f23565b80601f016020809104026020016040519081016040528092919081815260200182805461071890610f23565b80156107655780601f1061073a57610100808354040283529160200191610765565b820191906000526020600020905b81548152906001019060200180831161074857829003601f168201915b5050505050610946565b6107ae6040518060400160405280601381526020017f57696e6e696e6720766f746520636f756e743a00000000000000000000000000815250846109e2565b600282815481106107c2576107c1610e62565b5b906000526020600020906002020160000180546107de90610f23565b80601f016020809104026020016040519081016040528092919081815260200182805461080a90610f23565b80156108575780601f1061082c57610100808354040283529160200191610857565b820191906000526020600020905b81548152906001019060200180831161083a57829003601f168201915b505050505093505050505b90565b60008054906101000a900473ffffffffffffffffffffffffffffffffffffffff1681565b60006a636f6e736f6c652e6c6f679050600080835160208501845afa505050565b61094282826040516024016108c092919061101d565b6040516020818303038152906040527f319af333000000000000000000000000000000000000000000000000000000007bffffffffffffffffffffffffffffffffffffffffffffffffffffffff19166020820180517bffffffffffffffffffffffffffffffffffffffffffffffffffffffff8381831617835250505050610b17565b5050565b6109de828260405160240161095c92919061104d565b6040516020818303038152906040527f4b5c4277000000000000000000000000000000000000000000000000000000007bffffffffffffffffffffffffffffffffffffffffffffffffffffffff19166020820180517bffffffffffffffffffffffffffffffffffffffffffffffffffffffff8381831617835250505050610b17565b5050565b610a7a82826040516024016109f8929190610d0e565b6040516020818303038152906040527fb60e72cc000000000000000000000000000000000000000000000000000000007bffffffffffffffffffffffffffffffffffffffffffffffffffffffff19166020820180517bffffffffffffffffffffffffffffffffffffffffffffffffffffffff8381831617835250505050610b17565b5050565b610b1481604051602401610a929190610d3e565b6040516020818303038152906040527f41304fac000000000000000000000000000000000000000000000000000000007bffffffffffffffffffffffffffffffffffffffffffffffffffffffff19166020820180517bffffffffffffffffffffffffffffffffffffffffffffffffffffffff8381831617835250505050610b17565b50565b610b2e81610b26610889610b31565b63ffffffff16565b50565b610b3c819050919050565b610b44611084565b565b600080fd5b6000819050919050565b610b5e81610b4b565b8114610b6957600080fd5b50565b600081359050610b7b81610b55565b92915050565b600060208284031215610b9757610b96610b46565b5b6000610ba584828501610b6c565b91505092915050565b600073ffffffffffffffffffffffffffffffffffffffff82169050919050565b6000610bd982610bae565b9050919050565b610be981610bce565b8114610bf457600080fd5b50565b600081359050610c0681610be0565b92915050565b600060208284031215610c2257610c21610b46565b5b6000610c3084828501610bf7565b91505092915050565b60008115159050919050565b610c4e81610c39565b82525050565b6000602082019050610c696000830184610c45565b92915050565b600081519050919050565b600082825260208201905092915050565b60005b83811015610ca9578082015181840152602081019050610c8e565b60008484015250505050565b6000601f19601f8301169050919050565b6000610cd182610c6f565b610cdb8185610c7a565b9350610ceb818560208601610c8b565b610cf481610cb5565b840191505092915050565b610d0881610b4b565b82525050565b60006040820190508181036000830152610d288185610cc6565b9050610d376020830184610cff565b9392505050565b60006020820190508181036000830152610d588184610cc6565b905092915050565b610d6981610bce565b82525050565b6000602082019050610d846000830184610d60565b92915050565b7f596f75206861766520616c726561647920766f7465642e000000000000000000600082015250565b6000610dc0601783610c7a565b9150610dcb82610d8a565b602082019050919050565b60006020820190508181036000830152610def81610db3565b9050919050565b7f496e76616c69642063616e64696461746520696e6465782e0000000000000000600082015250565b6000610e2c601883610c7a565b9150610e3782610df6565b602082019050919050565b60006020820190508181036000830152610e5b81610e1f565b9050919050565b7f4e487b7100000000000000000000000000000000000000000000000000000000600052603260045260246000fd5b7f4e487b7100000000000000000000000000000000000000000000000000000000600052601160045260246000fd5b6000610ecb82610b4b565b9150610ed683610b4b565b9250828201905080821115610eee57610eed610e91565b5b92915050565b7f4e487b7100000000000000000000000000000000000000000000000000000000600052602260045260246000fd5b60006002820490506001821680610f3b57607f821691505b602082108103610f4e57610f4d610ef4565b5b50919050565b60008190508160005260206000209050919050565b60008154610f7681610f23565b610f808186610c7a565b94506001821660008114610f9b5760018114610fb157610fe4565b60ff198316865281151560200286019350610fe4565b610fba85610f54565b60005b83811015610fdc57815481890152600182019150602081019050610fbd565b808801955050505b50505092915050565b60006040820190506110026000830185610d60565b81810360208301526110148184610f69565b90509392505050565b600060408201905081810360008301526110378185610cc6565b90506110466020830184610d60565b9392505050565b600060408201905081810360008301526110678185610cc6565b9050818103602083015261107b8184610cc6565b90509392505050565b7f4e487b7100000000000000000000000000000000000000000000000000000000600052605160045260246000fdfea2646970667358221220c8c357055df0d4142fc4795b2f442b6867176866ee80308edb4427cae9461fb164736f6c634300081c0033",
  "linkReferences": {},
  "deployedLinkReferences": {}
}