{
  "_format": "hh-sol-artifact-1",
  "contractName": "VotingSystem",
  "sourceName": "contracts/VotingSystem.sol",
  "abi": [
    {
      "inputs": [
        {
          "internalType": "string[]",
          "name": "_candidateNames",
          "type": "string[]"
        }
      ],
      "stateMutability": "nonpayable",
      "type": "constructor"
    },
    {
      "anonymous": false,
      "inputs": [
        {
          "indexed": false,
          "internalType": "address",
          "name": "voter",
          "type": "address"
        },
        {
          "indexed": false,
          "internalType": "string",
          "name": "candidate",
          "type": "string"
        }
      ],
      "name": "VoteCasted",
      "type": "event"
    },
    {
      "inputs": [],
      "name": "admin",
      "outputs": [
        {
          "internalType": "address",
          "name": "",
          "type": "address"
        }
      ],
      "stateMutability": "view",
      "type": "function"
    },
    {
      "inputs": [
        {
          "internalType": "uint256",
          "name": "",
          "type": "uint256"
        }
      ],
      "name": "candidates",
      "outputs": [
        {
          "internalType": "string",
          "name": "name",
          "type": "string"
        },
        {
          "internalType": "uint256",
          "name": "voteCount",
          "type": "uint256"
        }
      ],
      "stateMutability": "view",
      "type": "function"
    },
    {
      "inputs": [],
      "name": "getWinner",
      "outputs": [
        {
          "internalType": "string",
          "name": "",
          "type": "string"
        }
      ],
      "stateMutability": "view",
      "type": "function"
    },
    {
      "inputs": [
        {
          "internalType": "address",
          "name": "",
          "type": "address"
        }
      ],
      "name": "hasVoted",
      "outputs": [
        {
          "internalType": "bool",
          "name": "",
          "type": "bool"
        }
      ],
      "stateMutability": "view",
      "type": "function"
    },
    {
      "inputs": [
        {
          "internalType": "uint256",
          "name": "_candidateIndex",
          "type": "uint256"
        }
      ],
      "name": "vote",
      "outputs": [],
      "stateMutability": "nonpayable",
      "type": "function"
    }
  ],
  "bytecode": "0x608060405234801561001057600080fd5b50604051611885380380611885833981810160405281019061003291906104cc565b336000806101000a81548173ffffffffffffffffffffffffffffffffffffffff021916908373ffffffffffffffffffffffffffffffffffffffff16021790555060005b8151811015610167576002604051806040016040528084848151811061009e5761009d610515565b5b602002602001015181526020016000815250908060018154018082558091505060019003906000526020600020906002020160009091909190915060008201518160000190816100ee9190610765565b5060208201518160010155505061015a6040518060400160405280601081526020017f43616e6469646174652061646465643a0000000000000000000000000000000081525083838151811061014757610146610515565b5b602002602001015161016e60201b60201c565b8080600101915050610075565b50506108e7565b61020c8282604051602401610184929190610881565b6040516020818303038152906040527f4b5c4277000000000000000000000000000000000000000000000000000000007bffffffffffffffffffffffffffffffffffffffffffffffffffffffff19166020820180517bffffffffffffffffffffffffffffffffffffffffffffffffffffffff838183161783525050505061021060201b60201c565b5050565b6102318161022c61023460201b6107c81761025560201b60201c565b60201c565b50565b60006a636f6e736f6c652e6c6f679050600080835160208501845afa505050565b61026760201b6109e217819050919050565b61026f6108b8565b565b6000604051905090565b600080fd5b600080fd5b600080fd5b6000601f19601f8301169050919050565b7f4e487b7100000000000000000000000000000000000000000000000000000000600052604160045260246000fd5b6102d38261028a565b810181811067ffffffffffffffff821117156102f2576102f161029b565b5b80604052505050565b6000610305610271565b905061031182826102ca565b919050565b600067ffffffffffffffff8211156103315761033061029b565b5b602082029050602081019050919050565b600080fd5b600080fd5b600067ffffffffffffffff8211156103675761036661029b565b5b6103708261028a565b9050602081019050919050565b60005b8381101561039b578082015181840152602081019050610380565b60008484015250505050565b60006103ba6103b58461034c565b6102fb565b9050828152602081018484840111156103d6576103d5610347565b5b6103e184828561037d565b509392505050565b600082601f8301126103fe576103fd610285565b5b815161040e8482602086016103a7565b91505092915050565b600061042a61042584610316565b6102fb565b9050808382526020820190506020840283018581111561044d5761044c610342565b5b835b8181101561049457805167ffffffffffffffff81111561047257610471610285565b5b80860161047f89826103e9565b8552602085019450505060208101905061044f565b5050509392505050565b600082601f8301126104b3576104b2610285565b5b81516104c3848260208601610417565b91505092915050565b6000602082840312156104e2576104e161027b565b5b600082015167ffffffffffffffff811115610500576104ff610280565b5b61050c8482850161049e565b91505092915050565b7f4e487b7100000000000000000000000000000000000000000000000000000000600052603260045260246000fd5b600081519050919050565b7f4e487b7100000000000000000000000000000000000000000000000000000000600052602260045260246000fd5b6000600282049050600182168061059657607f821691505b6020821081036105a9576105a861054f565b5b50919050565b60008190508160005260206000209050919050565b60006020601f8301049050919050565b600082821b905092915050565b6000600883026106117fffffffffffffffffffffffffffffffffffffffffffffffffffffffffffffffff826105d4565b61061b86836105d4565b95508019841693508086168417925050509392505050565b6000819050919050565b6000819050919050565b600061066261065d61065884610633565b61063d565b610633565b9050919050565b6000819050919050565b61067c83610647565b61069061068882610669565b8484546105e1565b825550505050565b600090565b6106a5610698565b6106b0818484610673565b505050565b5b818110156106d4576106c960008261069d565b6001810190506106b6565b5050565b601f821115610719576106ea816105af565b6106f3846105c4565b81016020851015610702578190505b61071661070e856105c4565b8301826106b5565b50505b505050565b600082821c905092915050565b600061073c6000198460080261071e565b1980831691505092915050565b6000610755838361072b565b9150826002028217905092915050565b61076e82610544565b67ffffffffffffffff8111156107875761078661029b565b5b610791825461057e565b61079c8282856106d8565b600060209050601f8311600181146107cf57600084156107bd578287015190505b6107c78582610749565b86555061082f565b601f1984166107dd866105af565b60005b82811015610805578489015182556001820191506020850194506020810190506107e0565b86831015610822578489015161081e601f89168261072b565b8355505b6001600288020188555050505b505050505050565b600082825260208201905092915050565b600061085382610544565b61085d8185610837565b935061086d81856020860161037d565b6108768161028a565b840191505092915050565b6000604082019050818103600083015261089b8185610848565b905081810360208301526108af8184610848565b90509392505050565b7f4e487b7100000000000000000000000000000000000000000000000000000000600052605160045260246000fd5b610f8f806108f66000396000f3fe608060405234801561001057600080fd5b50600436106100575760003560e01c80630121b93f1461005c57806309eef43e146100785780633477ee2e146100a85780638e7ea5b2146100d9578063f851a440146100f7575b600080fd5b61007660048036038101906100719190610a27565b610115565b005b610092600480360381019061008d9190610ab2565b61046c565b60405161009f9190610afa565b60405180910390f35b6100c260048036038101906100bd9190610a27565b61048c565b6040516100d0929190610bb4565b60405180910390f35b6100e1610548565b6040516100ee9190610be4565b60405180910390f35b6100ff6107a4565b60405161010c9190610c15565b60405180910390f35b600160003373ffffffffffffffffffffffffffffffffffffffff1673ffffffffffffffffffffffffffffffffffffffff16815260200190815260200160002060009054906101000a900460ff16156101a2576040517f08c379a000000000000000000000000000000000000000000000000000000000815260040161019990610c7c565b60405180910390fd5b60028054905081106101e9576040517f08c379a00000000000000000000000000000000000000000000000000000000081526004016101e090610ce8565b60405180910390fd5b60018060003373ffffffffffffffffffffffffffffffffffffffff1673ffffffffffffffffffffffffffffffffffffffff16815260200190815260200160002060006101000a81548160ff02191690831515021790555060016002828154811061025657610255610d08565b5b906000526020600020906002020160010160008282546102769190610d66565b925050819055506102bc6040518060400160405280600f81526020017f566f7465206361737465642062793a0000000000000000000000000000000000815250336107e9565b6103a86040518060400160405280601481526020017f43616e64696461746520766f74656420666f723a0000000000000000000000008152506002838154811061030957610308610d08565b5b9060005260206000209060020201600001805461032590610dc9565b80601f016020809104026020016040519081016040528092919081815260200182805461035190610dc9565b801561039e5780601f106103735761010080835404028352916020019161039e565b820191906000526020600020905b81548152906001019060200180831161038157829003601f168201915b5050505050610885565b61040c6040518060400160405280601a81526020017f546f74616c20766f74657320666f722063616e6469646174653a000000000000815250600283815481106103f5576103f4610d08565b5b906000526020600020906002020160010154610921565b7fb7821d50dfbda5ea310faebbeac5217bc1bb0cabe463e76b80e48d11e57df098336002838154811061044257610441610d08565b5b9060005260206000209060020201600001604051610461929190610e93565b60405180910390a150565b60016020528060005260406000206000915054906101000a900460ff1681565b6002818154811061049c57600080fd5b90600052602060002090600202016000915090508060000180546104bf90610dc9565b80601f01602080910402602001604051908101604052809291908181526020018280546104eb90610dc9565b80156105385780601f1061050d57610100808354040283529160200191610538565b820191906000526020600020905b81548152906001019060200180831161051b57829003601f168201915b5050505050908060010154905082565b606060008060005b6002805490508110156105c357826002828154811061057257610571610d08565b5b90600052602060002090600202016001015411156105b6576002818154811061059e5761059d610d08565b5b90600052602060002090600202016001015492508091505b8080600101915050610550565b506106b06040518060400160405280601281526020017f57696e6e696e672063616e6469646174653a00000000000000000000000000008152506002838154811061061157610610610d08565b5b9060005260206000209060020201600001805461062d90610dc9565b80601f016020809104026020016040519081016040528092919081815260200182805461065990610dc9565b80156106a65780601f1061067b576101008083540402835291602001916106a6565b820191906000526020600020905b81548152906001019060200180831161068957829003601f168201915b5050505050610885565b6106ef6040518060400160405280601381526020017f57696e6e696e6720766f746520636f756e743a0000000000000000000000000081525083610921565b6002818154811061070357610702610d08565b5b9060005260206000209060020201600001805461071f90610dc9565b80601f016020809104026020016040519081016040528092919081815260200182805461074b90610dc9565b80156107985780601f1061076d57610100808354040283529160200191610798565b820191906000526020600020905b81548152906001019060200180831161077b57829003601f168201915b50505050509250505090565b60008054906101000a900473ffffffffffffffffffffffffffffffffffffffff1681565b60006a636f6e736f6c652e6c6f679050600080835160208501845afa505050565b61088182826040516024016107ff929190610ec3565b6040516020818303038152906040527f319af333000000000000000000000000000000000000000000000000000000007bffffffffffffffffffffffffffffffffffffffffffffffffffffffff19166020820180517bffffffffffffffffffffffffffffffffffffffffffffffffffffffff83818316178352505050506109bd565b5050565b61091d828260405160240161089b929190610ef3565b6040516020818303038152906040527f4b5c4277000000000000000000000000000000000000000000000000000000007bffffffffffffffffffffffffffffffffffffffffffffffffffffffff19166020820180517bffffffffffffffffffffffffffffffffffffffffffffffffffffffff83818316178352505050506109bd565b5050565b6109b98282604051602401610937929190610bb4565b6040516020818303038152906040527fb60e72cc000000000000000000000000000000000000000000000000000000007bffffffffffffffffffffffffffffffffffffffffffffffffffffffff19166020820180517bffffffffffffffffffffffffffffffffffffffffffffffffffffffff83818316178352505050506109bd565b5050565b6109d4816109cc6107c86109d7565b63ffffffff16565b50565b6109e2819050919050565b6109ea610f2a565b565b600080fd5b6000819050919050565b610a04816109f1565b8114610a0f57600080fd5b50565b600081359050610a21816109fb565b92915050565b600060208284031215610a3d57610a3c6109ec565b5b6000610a4b84828501610a12565b91505092915050565b600073ffffffffffffffffffffffffffffffffffffffff82169050919050565b6000610a7f82610a54565b9050919050565b610a8f81610a74565b8114610a9a57600080fd5b50565b600081359050610aac81610a86565b92915050565b600060208284031215610ac857610ac76109ec565b5b6000610ad684828501610a9d565b91505092915050565b60008115159050919050565b610af481610adf565b82525050565b6000602082019050610b0f6000830184610aeb565b92915050565b600081519050919050565b600082825260208201905092915050565b60005b83811015610b4f578082015181840152602081019050610b34565b60008484015250505050565b6000601f19601f8301169050919050565b6000610b7782610b15565b610b818185610b20565b9350610b91818560208601610b31565b610b9a81610b5b565b840191505092915050565b610bae816109f1565b82525050565b60006040820190508181036000830152610bce8185610b6c565b9050610bdd6020830184610ba5565b9392505050565b60006020820190508181036000830152610bfe8184610b6c565b905092915050565b610c0f81610a74565b82525050565b6000602082019050610c2a6000830184610c06565b92915050565b7f596f75206861766520616c726561647920766f7465642e000000000000000000600082015250565b6000610c66601783610b20565b9150610c7182610c30565b602082019050919050565b60006020820190508181036000830152610c9581610c59565b9050919050565b7f496e76616c69642063616e64696461746520696e6465782e0000000000000000600082015250565b6000610cd2601883610b20565b9150610cdd82610c9c565b602082019050919050565b60006020820190508181036000830152610d0181610cc5565b9050919050565b7f4e487b7100000000000000000000000000000000000000000000000000000000600052603260045260246000fd5b7f4e487b7100000000000000000000000000000000000000000000000000000000600052601160045260246000fd5b6000610d71826109f1565b9150610d7c836109f1565b9250828201905080821115610d9457610d93610d37565b5b92915050565b7f4e487b7100000000000000000000000000000000000000000000000000000000600052602260045260246000fd5b60006002820490506001821680610de157607f821691505b602082108103610df457610df3610d9a565b5b50919050565b60008190508160005260206000209050919050565b60008154610e1c81610dc9565b610e268186610b20565b94506001821660008114610e415760018114610e5757610e8a565b60ff198316865281151560200286019350610e8a565b610e6085610dfa565b60005b83811015610e8257815481890152600182019150602081019050610e63565b808801955050505b50505092915050565b6000604082019050610ea86000830185610c06565b8181036020830152610eba8184610e0f565b90509392505050565b60006040820190508181036000830152610edd8185610b6c565b9050610eec6020830184610c06565b9392505050565b60006040820190508181036000830152610f0d8185610b6c565b90508181036020830152610f218184610b6c565b90509392505050565b7f4e487b7100000000000000000000000000000000000000000000000000000000600052605160045260246000fdfea26469706673582212209a3967ba9cca1f4b33da49b6bbdad5e76728854ebe44e653e38921a2e858528264736f6c634300081c0033",
  "linkReferences": {},
  "deployedLinkReferences": {}
}